{
  "contractName": "BridgeValidators",
  "abi": [
    {
      "constant": true,
      "inputs": [],
      "name": "validatorCount",
      "outputs": [
        {
          "name": "",
          "type": "uint256"
        }
      ],
      "payable": false,
      "stateMutability": "view",
      "type": "function"
    },
    {
      "constant": true,
      "inputs": [],
      "name": "getBridgeValidatorsInterfacesVersion",
      "outputs": [
        {
          "name": "major",
          "type": "uint64"
        },
        {
          "name": "minor",
          "type": "uint64"
        },
        {
          "name": "patch",
          "type": "uint64"
        }
      ],
      "payable": false,
      "stateMutability": "pure",
      "type": "function"
    },
    {
      "constant": true,
      "inputs": [],
      "name": "isInitialized",
      "outputs": [
        {
          "name": "",
          "type": "bool"
        }
      ],
      "payable": false,
      "stateMutability": "view",
      "type": "function"
    },
    {
      "constant": false,
      "inputs": [
        {
          "name": "_requiredSignatures",
          "type": "uint256"
        }
      ],
      "name": "setRequiredSignatures",
      "outputs": [],
      "payable": false,
      "stateMutability": "nonpayable",
      "type": "function"
    },
    {
      "constant": true,
      "inputs": [],
      "name": "requiredSignatures",
      "outputs": [
        {
          "name": "",
          "type": "uint256"
        }
      ],
      "payable": false,
      "stateMutability": "view",
      "type": "function"
    },
    {
      "constant": true,
      "inputs": [
        {
          "name": "_address",
          "type": "address"
        }
      ],
      "name": "getNextValidator",
      "outputs": [
        {
          "name": "",
          "type": "address"
        }
      ],
      "payable": false,
      "stateMutability": "view",
      "type": "function"
    },
    {
      "constant": true,
      "inputs": [],
      "name": "owner",
      "outputs": [
        {
          "name": "",
          "type": "address"
        }
      ],
      "payable": false,
      "stateMutability": "view",
      "type": "function"
    },
    {
      "constant": true,
      "inputs": [],
      "name": "deployedAtBlock",
      "outputs": [
        {
          "name": "",
          "type": "uint256"
        }
      ],
      "payable": false,
      "stateMutability": "view",
      "type": "function"
    },
    {
      "constant": true,
      "inputs": [],
      "name": "F_ADDR",
      "outputs": [
        {
          "name": "",
          "type": "address"
        }
      ],
      "payable": false,
      "stateMutability": "view",
      "type": "function"
    },
    {
      "constant": false,
      "inputs": [
        {
          "name": "newOwner",
          "type": "address"
        }
      ],
      "name": "transferOwnership",
      "outputs": [],
      "payable": false,
      "stateMutability": "nonpayable",
      "type": "function"
    },
    {
      "constant": true,
      "inputs": [
        {
          "name": "_validator",
          "type": "address"
        }
      ],
      "name": "isValidator",
      "outputs": [
        {
          "name": "",
          "type": "bool"
        }
      ],
      "payable": false,
      "stateMutability": "view",
      "type": "function"
    },
    {
      "anonymous": false,
      "inputs": [
        {
          "indexed": true,
          "name": "validator",
          "type": "address"
        }
      ],
      "name": "ValidatorAdded",
      "type": "event"
    },
    {
      "anonymous": false,
      "inputs": [
        {
          "indexed": true,
          "name": "validator",
          "type": "address"
        }
      ],
      "name": "ValidatorRemoved",
      "type": "event"
    },
    {
      "anonymous": false,
      "inputs": [
        {
          "indexed": false,
          "name": "requiredSignatures",
          "type": "uint256"
        }
      ],
      "name": "RequiredSignaturesChanged",
      "type": "event"
    },
    {
      "anonymous": false,
      "inputs": [
        {
          "indexed": false,
          "name": "previousOwner",
          "type": "address"
        },
        {
          "indexed": false,
          "name": "newOwner",
          "type": "address"
        }
      ],
      "name": "OwnershipTransferred",
      "type": "event"
    },
    {
      "constant": false,
      "inputs": [
        {
          "name": "_requiredSignatures",
          "type": "uint256"
        },
        {
          "name": "_initialValidators",
          "type": "address[]"
        },
        {
          "name": "_owner",
          "type": "address"
        }
      ],
      "name": "initialize",
      "outputs": [
        {
          "name": "",
          "type": "bool"
        }
      ],
      "payable": false,
      "stateMutability": "nonpayable",
      "type": "function"
    },
    {
      "constant": false,
      "inputs": [
        {
          "name": "_validator",
          "type": "address"
        }
      ],
      "name": "addValidator",
      "outputs": [],
      "payable": false,
      "stateMutability": "nonpayable",
      "type": "function"
    },
    {
      "constant": false,
      "inputs": [
        {
          "name": "_validator",
          "type": "address"
        }
      ],
      "name": "removeValidator",
      "outputs": [],
      "payable": false,
      "stateMutability": "nonpayable",
      "type": "function"
    }
  ],
  "bytecode": "0x608060405234801561001057600080fd5b5061134a806100206000396000f3006080604052600436106100cf5763ffffffff7c01000000000000000000000000000000000000000000000000000000006000350416630f43a67781146100d45780632bda4eee146100fb578063392e53cd1461013c57806340a141ff146101655780634d238c8e1461018857806352af719f146101a95780637d2b9cc01461020e5780638d068043146102265780638d37052c1461023b5780638da5cb5b146102785780639a454b991461028d578063c794c769146102a2578063f2fde38b146102b7578063facd743b146102d8575b600080fd5b3480156100e057600080fd5b506100e96102f9565b60408051918252519081900360200190f35b34801561010757600080fd5b506101106103ad565b6040805167ffffffffffffffff9485168152928416602084015292168183015290519081900360600190f35b34801561014857600080fd5b506101516103b8565b604080519115158252519081900360200190f35b34801561017157600080fd5b50610186600160a060020a0360043516610470565b005b34801561019457600080fd5b50610186600160a060020a03600435166104cc565b3480156101b557600080fd5b506040805160206004602480358281013584810280870186019097528086526101519684359636966044959194909101929182918501908490808284375094975050509235600160a060020a0316935061052892505050565b34801561021a57600080fd5b50610186600435610887565b34801561023257600080fd5b506100e96109a9565b34801561024757600080fd5b5061025c600160a060020a0360043516610a1c565b60408051600160a060020a039092168252519081900360200190f35b34801561028457600080fd5b5061025c610b04565b34801561029957600080fd5b506100e9610bc2565b3480156102ae57600080fd5b5061025c610c03565b3480156102c357600080fd5b50610186600160a060020a0360043516610c0e565b3480156102e457600080fd5b50610151600160a060020a0360043516610c4b565b600080600060405160200180807f76616c696461746f72436f756e74000000000000000000000000000000000000815250600e0190506040516020818303038152906040526040518082805190602001908083835b6020831061036d5780518252601f19909201916020918201910161034e565b51815160209384036101000a6000190180199092169116179052604080519290940182900390912086528501959095529290920160002054949350505050565b600260016000909192565b60006004600060405160200180807f6973496e697469616c697a656400000000000000000000000000000000000000815250600d0190506040516020818303038152906040526040518082805190602001908083835b6020831061042d5780518252601f19909201916020918201910161040e565b51815160209384036101000a600019018019909216911617905260408051929094018290039091208652850195909552929092016000205460ff16949350505050565b610478610b04565b600160a060020a0316331461048c57600080fd5b61049581610c7e565b604051600160a060020a038216907fe1434e25d6611e0db941968fdc97811c982ac1602e951637d206f5fdda9dd8f190600090a250565b6104d4610b04565b600160a060020a031633146104e857600080fd5b6104f181610d9f565b604051600160a060020a038216907fe366c1c0452ed8eec96861e9e54141ebff23c9ec89fe27b996b45f5ec388498790600090a250565b6000806105336103b8565b1561053d57600080fd5b600160a060020a038316151561055257600080fd5b61055b83610e36565b84151561056757600080fd5b835185111561057557600080fd5b5060005b835181101561074a57835160009085908390811061059357fe5b90602001906020020151600160a060020a0316141580156105dc57508351600160a060020a03908590839081106105c657fe5b90602001906020020151600160a060020a031614155b15156105e757600080fd5b61060784828151811015156105f857fe5b90602001906020020151610c4b565b1561061157600080fd5b80151561067757610640600160a060020a03858381518110151561063157fe5b90602001906020020151610f5e565b83516001141561067257610672848281518110151561065b57fe5b90602001906020020151600160a060020a03610f5e565b6106d4565b60018451038114156106c0576106af846001830381518110151561069757fe5b90602001906020020151858381518110151561063157fe5b610672848281518110151561065b57fe5b6106d4846001830381518110151561069757fe5b6106f56106f060016106e46102f9565b9063ffffffff61106516565b61107b565b838181518110151561070357fe5b90602001906020020151600160a060020a03167fe366c1c0452ed8eec96861e9e54141ebff23c9ec89fe27b996b45f5ec388498760405160405180910390a2600101610579565b8460008060405160200180807f72657175697265645369676e617475726573000000000000000000000000000081525060120190506040516020818303038152906040526040518082805190602001908083835b602083106107bd5780518252601f19909201916020918201910161079e565b51815160001960209485036101000a01908116901991909116179052604080519490920184900390932086528583019690965250928401600090812095909555505081517f6465706c6f7965644174426c6f636b00000000000000000000000000000000008152825190819003600f01902083528290529020439055610843600161112f565b6040805186815290517f10dbc913050d3180c3b99f7da91fd514af7cbc9c1bb59a0da5d2bc38f0cf395a9181900360200190a161087e6103b8565b95945050505050565b61088f610b04565b600160a060020a031633146108a357600080fd5b806108ac6102f9565b10156108b757600080fd5b8015156108c357600080fd5b8060008060405160200180807f72657175697265645369676e617475726573000000000000000000000000000081525060120190506040516020818303038152906040526040518082805190602001908083835b602083106109365780518252601f199092019160209182019101610917565b51815160001960209485036101000a019081169019919091161790526040805194909201849003909320865285830196909652509284016000209490945550815184815291517f10dbc913050d3180c3b99f7da91fd514af7cbc9c1bb59a0da5d2bc38f0cf395a9350918290030190a150565b600080600060405160200180807f72657175697265645369676e617475726573000000000000000000000000000081525060120190506040516020818303038152906040526040518082805190602001908083836020831061036d5780518252601f19909201916020918201910161034e565b6000600260008360405160200180807f76616c696461746f72734c697374000000000000000000000000000000000000815250600e0182600160a060020a0316600160a060020a03166c010000000000000000000000000281526014019150506040516020818303038152906040526040518082805190602001908083835b60208310610aba5780518252601f199092019160209182019101610a9b565b51815160209384036101000a6000190180199092169116179052604080519290940182900390912086528501959095529290920160002054600160a060020a031695945050505050565b60006002600060405160200180807f6f776e657200000000000000000000000000000000000000000000000000000081525060050190506040516020818303038152906040526040518082805190602001908083835b60208310610b795780518252601f199092019160209182019101610b5a565b51815160209384036101000a6000190180199092169116179052604080519290940182900390912086528501959095529290920160002054600160a060020a0316949350505050565b604080517f6465706c6f7965644174426c6f636b00000000000000000000000000000000008152815190819003600f01902060009081526020819052205490565b600160a060020a0381565b610c16610b04565b600160a060020a03163314610c2a57600080fd5b600160a060020a0381161515610c3f57600080fd5b610c4881610e36565b50565b6000600160a060020a0382811614801590610c7857506000610c6c83610a1c565b600160a060020a031614155b92915050565b6000806000610c8b6109a9565b610c936102f9565b11610c9d57600080fd5b610ca684610c4b565b1515610cb157600080fd5b610cba84610a1c565b9250600160a060020a039150610ccf82610a1c565b9050600160a060020a0381161515610ce657600080fd5b600160a060020a0381811690851614610d3457809150610d0582610a1c565b9050600160a060020a038082161480610d255750600160a060020a038116155b15610d2f57600080fd5b610ce6565b610d3e8284610f5e565b610d7d6040805190810160405280600e81526020017f76616c696461746f72734c697374000000000000000000000000000000000000815250856111f0565b610d996106f06001610d8d6102f9565b9063ffffffff61130c16565b50505050565b6000600160a060020a03821615801590610dc25750600160a060020a0382811614155b1515610dcd57600080fd5b610dd682610c4b565b15610de057600080fd5b610df0600160a060020a03610a1c565b9050600160a060020a0381161515610e0757600080fd5b610e118282610f5e565b610e22600160a060020a0383610f5e565b610e326106f060016106e46102f9565b5050565b7f8be0079c531659141344cd1fd0a4f28419497f9722a3daafe3b4186f6b6457e0610e5f610b04565b60408051600160a060020a03928316815291841660208301528051918290030190a1806002600060405160200180807f6f776e657200000000000000000000000000000000000000000000000000000081525060050190506040516020818303038152906040526040518082805190602001908083835b60208310610ef55780518252601f199092019160209182019101610ed6565b51815160209384036101000a60001901801990921691161790526040805192909401829003909120865285019590955292909201600020805473ffffffffffffffffffffffffffffffffffffffff1916600160a060020a03959095169490941790935550505050565b80600260008460405160200180807f76616c696461746f72734c697374000000000000000000000000000000000000815250600e0182600160a060020a0316600160a060020a03166c010000000000000000000000000281526014019150506040516020818303038152906040526040518082805190602001908083835b60208310610ffb5780518252601f199092019160209182019101610fdc565b51815160209384036101000a60001901801990921691161790526040805192909401829003909120865285019590955292909201600020805473ffffffffffffffffffffffffffffffffffffffff1916600160a060020a0395909516949094179093555050505050565b60008282018381101561107457fe5b9392505050565b8060008060405160200180807f76616c696461746f72436f756e74000000000000000000000000000000000000815250600e0190506040516020818303038152906040526040518082805190602001908083835b602083106110ee5780518252601f1990920191602091820191016110cf565b51815160209384036101000a600019018019909216911617905260408051929094018290039091208652850195909552929092016000209390935550505050565b806004600060405160200180807f6973496e697469616c697a656400000000000000000000000000000000000000815250600d0190506040516020818303038152906040526040518082805190602001908083835b602083106111a35780518252601f199092019160209182019101611184565b51815160209384036101000a60001901801990921691161790526040805192909401829003909120865285019590955292909201600020805460ff19169415159490941790935550505050565b6002600083836040516020018083805190602001908083835b602083106112285780518252601f199092019160209182019101611209565b6001836020036101000a03801982511681845116808217855250505050505090500182600160a060020a0316600160a060020a03166c01000000000000000000000000028152601401925050506040516020818303038152906040526040518082805190602001908083835b602083106112b35780518252601f199092019160209182019101611294565b51815160209384036101000a60001901801990921691161790526040805192909401829003909120865285019590955292909201600020805473ffffffffffffffffffffffffffffffffffffffff191690555050505050565b60008282111561131857fe5b509003905600a165627a7a72305820a135a2229a9dc8a3df2f30306a6e4fcc4ce029a424367fa4519ed81d52e676120029",
  "source": "pragma solidity 0.4.24;\n\nimport \"./BaseBridgeValidators.sol\";\n\n\ncontract BridgeValidators is BaseBridgeValidators {\n\n    event ValidatorAdded (address indexed validator);\n    event ValidatorRemoved (address indexed validator);\n\n    function initialize(\n        uint256 _requiredSignatures,\n        address[] _initialValidators,\n        address _owner\n    )\n        public\n        returns (bool)\n    {\n        require(!isInitialized());\n        require(_owner != address(0));\n        setOwner(_owner);\n        require(_requiredSignatures != 0);\n        require(_initialValidators.length >= _requiredSignatures);\n\n        for (uint256 i = 0; i < _initialValidators.length; i++) {\n            require(_initialValidators[i] != address(0) && _initialValidators[i] != F_ADDR);\n            require(!isValidator(_initialValidators[i]));\n\n            if (i == 0) {\n                setNextValidator(F_ADDR, _initialValidators[i]);\n                if (_initialValidators.length == 1) {\n                    setNextValidator(_initialValidators[i], F_ADDR);\n                }\n            } else if (i == _initialValidators.length - 1) {\n                setNextValidator(_initialValidators[i - 1], _initialValidators[i]);\n                setNextValidator(_initialValidators[i], F_ADDR);\n            } else {\n                setNextValidator(_initialValidators[i - 1], _initialValidators[i]);\n            }\n\n            setValidatorCount(validatorCount().add(1));\n            emit ValidatorAdded(_initialValidators[i]);\n        }\n\n        uintStorage[keccak256(abi.encodePacked(\"requiredSignatures\"))] = _requiredSignatures;\n        uintStorage[keccak256(\"deployedAtBlock\")] = block.number;\n        setInitialize(true);\n        emit RequiredSignaturesChanged(_requiredSignatures);\n\n        return isInitialized();\n    }\n\n    function addValidator(address _validator) external onlyOwner {\n        _addValidator(_validator);\n        emit ValidatorAdded(_validator);\n    }\n\n    function removeValidator(address _validator) external onlyOwner {\n        _removeValidator(_validator);\n        emit ValidatorRemoved(_validator);\n    }\n}\n",
  "sourcePath": "/home/altoros/repos/bridge-ui/submodules/poa-bridge-contracts/contracts/upgradeable_contracts/BridgeValidators.sol",
  "compiler": {
    "name": "solc",
    "version": "0.4.24+commit.e67f0147.Emscripten.clang"
  },
  "schemaVersion": "2.0.0",
  "updatedAt": "2019-03-25T17:51:53.953Z"
}